{
  "contractName": "CarOwnership",
  "abi": [
    {
      "inputs": [
        {
          "internalType": "string",
          "name": "",
          "type": "string"
        }
      ],
      "name": "cars",
      "outputs": [
        {
          "internalType": "string",
          "name": "vin",
          "type": "string"
        },
        {
          "internalType": "address",
          "name": "owner",
          "type": "address"
        }
      ],
      "stateMutability": "view",
      "type": "function",
      "constant": true
    },
    {
      "inputs": [
        {
          "internalType": "string",
          "name": "_vin",
          "type": "string"
        }
      ],
      "name": "registerCar",
      "outputs": [],
      "stateMutability": "nonpayable",
      "type": "function"
    },
    {
      "inputs": [
        {
          "internalType": "string",
          "name": "_vin",
          "type": "string"
        },
        {
          "internalType": "address",
          "name": "_newOwner",
          "type": "address"
        }
      ],
      "name": "transferOwnership",
      "outputs": [],
      "stateMutability": "nonpayable",
      "type": "function"
    },
    {
      "inputs": [
        {
          "internalType": "string",
          "name": "_vin",
          "type": "string"
        }
      ],
      "name": "getOwner",
      "outputs": [
        {
          "internalType": "address",
          "name": "",
          "type": "address"
        }
      ],
      "stateMutability": "view",
      "type": "function",
      "constant": true
    }
  ],
  "bytecode": "0x608060405234801561001057600080fd5b506108dc806100206000396000f3fe608060405234801561001057600080fd5b506004361061004c5760003560e01c806341a2d180146100515780634aaf4a1214610082578063875e89a6146100b2578063c0e793c2146100ce575b600080fd5b61006b600480360381019061006691906104fc565b6100ea565b6040516100799291906106a2565b60405180910390f35b61009c600480360381019061009791906104fc565b6101cc565b6040516100a99190610687565b60405180910390f35b6100cc60048036038101906100c791906104fc565b610216565b005b6100e860048036038101906100e3919061053d565b6102c9565b005b600081805160208101820180518482526020830160208501208183528095505050505050600091509050806000018054610123906107ee565b80601f016020809104026020016040519081016040528092919081815260200182805461014f906107ee565b801561019c5780601f106101715761010080835404028352916020019161019c565b820191906000526020600020905b81548152906001019060200180831161017f57829003601f168201915b5050505050908060010160009054906101000a900473ffffffffffffffffffffffffffffffffffffffff16905082565b600080826040516101dd9190610670565b908152602001604051809103902060010160009054906101000a900473ffffffffffffffffffffffffffffffffffffffff169050919050565b60405180604001604052808281526020013373ffffffffffffffffffffffffffffffffffffffff168152506000826040516102519190610670565b9081526020016040518091039020600082015181600001908051906020019061027b9291906103dc565b5060208201518160010160006101000a81548173ffffffffffffffffffffffffffffffffffffffff021916908373ffffffffffffffffffffffffffffffffffffffff16021790555090505050565b6000826040516102d99190610670565b908152602001604051809103902060010160009054906101000a900473ffffffffffffffffffffffffffffffffffffffff1673ffffffffffffffffffffffffffffffffffffffff163373ffffffffffffffffffffffffffffffffffffffff1614610378576040517f08c379a000000000000000000000000000000000000000000000000000000000815260040161036f906106d2565b60405180910390fd5b806000836040516103899190610670565b908152602001604051809103902060010160006101000a81548173ffffffffffffffffffffffffffffffffffffffff021916908373ffffffffffffffffffffffffffffffffffffffff1602179055505050565b8280546103e8906107ee565b90600052602060002090601f01602090048101928261040a5760008555610451565b82601f1061042357805160ff1916838001178555610451565b82800160010185558215610451579182015b82811115610450578251825591602001919060010190610435565b5b50905061045e9190610462565b5090565b5b8082111561047b576000816000905550600101610463565b5090565b600061049261048d84610723565b6106f2565b9050828152602081018484840111156104aa57600080fd5b6104b58482856107ac565b509392505050565b6000813590506104cc8161088f565b92915050565b600082601f8301126104e357600080fd5b81356104f384826020860161047f565b91505092915050565b60006020828403121561050e57600080fd5b600082013567ffffffffffffffff81111561052857600080fd5b610534848285016104d2565b91505092915050565b6000806040838503121561055057600080fd5b600083013567ffffffffffffffff81111561056a57600080fd5b610576858286016104d2565b9250506020610587858286016104bd565b9150509250929050565b61059a8161077a565b82525050565b60006105ab82610753565b6105b5818561075e565b93506105c58185602086016107bb565b6105ce8161087e565b840191505092915050565b60006105e482610753565b6105ee818561076f565b93506105fe8185602086016107bb565b80840191505092915050565b600061061760258361075e565b91507f4f6e6c7920746865206f776e65722063616e207472616e73666572206f776e6560008301527f72736869700000000000000000000000000000000000000000000000000000006020830152604082019050919050565b600061067c82846105d9565b915081905092915050565b600060208201905061069c6000830184610591565b92915050565b600060408201905081810360008301526106bc81856105a0565b90506106cb6020830184610591565b9392505050565b600060208201905081810360008301526106eb8161060a565b9050919050565b6000604051905081810181811067ffffffffffffffff821117156107195761071861084f565b5b8060405250919050565b600067ffffffffffffffff82111561073e5761073d61084f565b5b601f19601f8301169050602081019050919050565b600081519050919050565b600082825260208201905092915050565b600081905092915050565b60006107858261078c565b9050919050565b600073ffffffffffffffffffffffffffffffffffffffff82169050919050565b82818337600083830152505050565b60005b838110156107d95780820151818401526020810190506107be565b838111156107e8576000848401525b50505050565b6000600282049050600182168061080657607f821691505b6020821081141561081a57610819610820565b5b50919050565b7f4e487b7100000000000000000000000000000000000000000000000000000000600052602260045260246000fd5b7f4e487b7100000000000000000000000000000000000000000000000000000000600052604160045260246000fd5b6000601f19601f8301169050919050565b6108988161077a565b81146108a357600080fd5b5056fea2646970667358221220cd3044e7ea6ec85b18a6ce262804fe0ec63f1d89ae8e4b1375fbc1e0a70adc3f64736f6c63430008000033",
  "immutableReferences": {},
  "source": "// SPDX-License-Identifier: MIT\r\npragma solidity ^0.8.0;\r\n\r\ncontract CarOwnership {\r\n    struct Car {\r\n        string vin; // Vehicle Identification Number\r\n        address owner; // Address of the car owner\r\n    }\r\n\r\n    mapping(string => Car) public cars;\r\n\r\n    function registerCar(string memory _vin) public {\r\n        cars[_vin] = Car(_vin, msg.sender);\r\n    }\r\n\r\n    function transferOwnership(string memory _vin, address _newOwner) public {\r\n        require(msg.sender == cars[_vin].owner, \"Only the owner can transfer ownership\");\r\n        cars[_vin].owner = _newOwner;\r\n    }\r\n\r\n    function getOwner(string memory _vin) public view returns (address) {\r\n        return cars[_vin].owner;\r\n    }\r\n}",
  "sourcePath": "C:\\Users\\priya\\CarOwnershipTransfer\\contracts\\CarOwnership.sol",
  "compiler": {
    "name": "solc",
    "version": "0.8.0+commit.c7dfd78e.Emscripten.clang"
  },
  "schemaVersion": "3.4.16",
  "updatedAt": "2024-11-29T16:23:40.517Z",
  "networkType": "ethereum",
  "devdoc": {
    "kind": "dev",
    "methods": {},
    "version": 1
  },
  "userdoc": {
    "kind": "user",
    "methods": {},
    "version": 1
  }
}